S0170000446174614163717569736974696F6E2E737265630A
S11300000C942A000C9447000C9447000C9447006D
S11300100C9447000C9447000C9447000C94470040
S11300200C9447000C9447000C9420020C94470055
S11300300C9447000C9490020C94CB020C9447004F
S11300400C9447000C9447000C9447000C94470010
S11300500C94470011241FBECFE5D8E0DEBFCDBF0E
S113006011E0A0E6B0E0EAEBFCE002C005900D92DE
S1130070A23AB107D9F722E0A2EAB1E001C01D9289
S1130080A633B207E1F70E94B1000C945B060C940E
S1130090000084E886B980E487B9369A3699FECFA1
S11300A084B195B1089597B1907E8F71892B87B9EA
S11300B0369A3699FECF84B195B1089587EE81BB07
S11300C088E182BB089520B330E0A90102C05595B0
S11300D047958A95E2F7CA0181700895FC01108260
S11300E0758364837383628341834783468308955E
S11300F0FC01908181819817B8F4A481B5819D0198
S11301002F5F3F4F6C938781815019F48181281BA5
S113011031098783358324839FB7F89480818F5F67
S113012080839FBF81E0089580E008958AEE8CBFAC
S113013012BE8DE083BF89B7826089BF0895789429
S11301400E94490060E07BE480E090E00E94370276
S11301509093A5018093A4010E945E000E949600E2
S11301600895CF93DF93CDB7DEB7C354D1090FB64B
S1130170F894DEBF0FBECDBF0E949F0087E2E0E689
S1130180F0E0DE01119601900D928A95E1F7CE011F
S113019001960E947B022FEF83ED90E32150804073
S11301A09040E1F700C000008BE3E7E8F0E0DE01F7
S11301B0119601900D928A95E1F7CE0101960E9465
S11301C07B022FEF83ED90E3215080409040E1F7D4
S11301D000C0000083E00E9463008111FBCF86E031
S11301E00E9453004C01A12CB12C1F921F929F928C
S11301F08F9382EC90E09F938F938E010F5F1F4F3C
S11302001F930F930E947103C8010E947B022FEF7A
S113021083ED90E3215080409040E1F700C000005E
S113022085E4EFECF0E0D80101900D928A95E1F7B6
S1130230C8010E947B022FEF83ED90E321508040A0
S11302409040E1F700C000000FB6F894DEBF0FBE87
S1130250CDBF83E00E9463008111FBCF86E00E9442
S113026053006C01E12CF12C1F921F92DF928F93AB
S113027084E191E09F938F938E010F5F1F4F1F9333
S11302800F930E947103C8010E947B029FEF23ED2C
S113029080E3915020408040E1F700C00000A701B6
S11302A09601281939094A095B0960EA76E881E070
S11302B090E00E94380369017A01222E2296DFAE73
S11302C022972396EFAE23972496FFAE2497FF92AE
S11302D0EF92DF922F9383E291E09F938F931F938A
S11302E00F930E947103C8010E947B029FEF23EDCC
S11302F080E3915020408040E1F700C000002227B5
S11303003327A9012C193D094E095F09C501B40120
S11303100E9406034B015C01BF92AF929F926F93C0
S11303208FE291E09F938F931F930F930E94710329
S1130330C8010E947B029FEF23ED80E3915020408F
S11303408040E1F700C0000081E3EBE3F1E0D80175
S113035001900D928A95E1F7C8010E947B029FEFFC
S113036023E284EF915020408040E1F700C0000078
S11303700FB6F894DEBF0FBECDBF0F2EFCE6CF2E16
S1130380F1E0DF2EF02D0F2EF9E7EF2EF1E0FF2E36
S1130390F02D0F2EFEE23F2EF02D86E00E9453003A
S11303A02C01612C712C1F921F925F928F93DF920C
S11303B0CF921F930F930E947103C8010E947B0286
S11303C09FEF23ED80E3915020408040E1F700C08F
S11303D00000222D22963FAD229723964FAD2397FE
S11303E024965FAD2497C301B2010E940603680DF1
S11303F0791D8A1D9B1D24E630E040E050E00E94F8
S113040038035F934F933F932F93FF92EF921F9381
S11304100F930E94710389A18AA339A2C8010E9483
S11304207B029FEF23ED80E3915020408040E1F771
S113043000C000000FB6F894DEBF0FBECDBFADCF35
S11304401F920F920FB60F9211248F939F93809156
S1130450A2019091A30101969093A3018093A2011C
S11304609F918F910F900FBE0F901F901895CF936F
S1130470CFB7DC01CB01880F991FAA1FBB1F880FC0
S1130480991FAA1FBB1F9C01AD01220F331F441FDC
S1130490551F220F331F441F551F60E074E284EF81
S11304A090E00E9416032150310929B9F89488E993
S11304B08AB986E880BD8CB15F99FDCF80EC8BB999
S11304C0CFBF40E466EA71E08EEE91E00E946E00D8
S11304D040E466EF71E086EE91E00E946E0086EEE5
S11304E091E0CF910895682F86EE91E00E94780004
S11304F0559A90E008950F931F93CF93DF93EC01E7
S11305008E018881882339F00E9473022196F801B4
S113051080818111F5CFDF91CF911F910F910895C3
S11305201F920F920FB60F9211242F933F934F9364
S11305308F939F93AF93BF93EF93FF934CB1EEEEE2
S1130540F1E0908181819817C0F4A481B5819D0167
S11305502F5F3F4F4C938781815021F48091EF01AD
S1130560281B3109EEEEF1E08783358324839FB79E
S1130570F89480818F5F80839FBFFF91EF91BF913B
S1130580AF919F918F914F913F912F910F900FBEFB
S11305900F901F9018951F920F920FB60F9211246F
S11305A02F933F938F939F93AF93BF93EF93FF93B7
S11305B08091E6018823E1F0E6EEF1E0A281B381C7
S11305C09D012F5F3F4F9C918681815021F4809142
S11305D0E701281B3109E6EEF1E0338322838683A9
S11305E02FB7F8948081815080832FBF9CB901C0BC
S11305F05598FF91EF91BF91AF919F918F913F914A
S11306002F910F900FBE0F901F901895DB018F93C1
S11306109F930E945703BF91AF91A29F800D911D9C
S1130620A39F900DB29F900D11240895A1E21A2E5C
S1130630AA1BBB1BFD010DC0AA1FBB1FEE1FFF1F82
S1130640A217B307E407F50720F0A21BB30BE40BD2
S1130650F50B661F771F881F991F1A9469F7609519
S11306607095809590959B01AC01BD01CF010895D3
S1130670052E97FB1EF400940E944F0357FD07D0EC
S11306800E94160307FC03D04EF40C944F035095BC
S11306904095309521953F4F4F4F5F4F089590956A
S11306A08095709561957F4F8F4F9F4F08950E945D
S11306B06203A59F900DB49F900DA49F800D911D82
S11306C011240895A29FB001B39FC001A39F700D90
S11306D0811D1124911DB29F700D811D1124911D46
S11306E00895AEE0B0E0E7E7F3E00C9432060D893C
S11306F01E8986E08C831A8309838FEF9FE79E838C
S11307008D83AE01475E5F4F6F89788DCE01019670
S11307100E949303EF81F885E00FF11F10822E965B
S1130720E4E00C944E06ABE0B0E0E9E9F3E00C94AD
S113073024066C017B018A01FC01178216828381E5
S113074081FFCCC1CE0101963C01F6019381F701F2
S113075093FD859193FF81917F01882309F4BAC1A8
S1130760853239F493FD859193FF81917F01853220
S113077029F4B60190E00E948A05E7CF912C212C40
S1130780312CFFE1F315D8F08B3279F038F4803254
S113079079F08332A1F4232D20611DC08D3261F0E4
S11307A0803369F4232D216016C0832D8260382E96
S11307B0E32DE4603E2E2AC0F32DF8601DC037FC03
S11307C02DC020ED280F2A3040F08E32B9F436FCCB
S11307D081C1232D2064322E19C036FE06C08AE062
S11307E0989E200D1124922E11C0EAE02E9E200D19
S11307F01124222EF32DF0623F2E08C08C3621F4F2
S1130800832D8068382E02C0883641F4F70193FDA9
S1130810859193FF81917F018111B3CF982F9F7DA3
S11308209554933028F40C5F1F4F9FE399830DC0B8
S1130830833631F0833771F0833509F059C021C014
S1130840F801808189830E5F1F4F88248394912C43
S1130850530113C02801F2E04F0E511CF801A0808F
S1130860B18036FE03C0692D70E002C06FEF7FEFE8
S1130870C5010E947F054C018201F32DFF773F2EB5
S113088016C0280122E0420E511CF801A080B1805C
S113089036FE03C0692D70E002C06FEF7FEFC50123
S11308A00E9474054C01F32DF0683F2E820133FC45
S11308B01BC0822D90E088169906B0F4B60180E240
S11308C090E00E948A052A94F4CFF50137FC8591C3
S11308D037FE81915F01B60190E00E948A052110E4
S11308E02A9421E0821A91088114910471F7E8C0D6
S11308F0843611F0893641F5F80137FE07C060816E
S11309007181828193810C5F1F4F08C06081718166
S1130910072E000C880B990B0E5F1F4FF32DFF76EB
S11309203F2E97FF09C090958095709561957F4FF4
S11309308F4F9F4FF0683F2E2AE030E0A3010E94C2
S1130940C605882E861845C0853731F4232D2F7EA1
S1130950B22E2AE030E025C0932D997FB92E8F3630
S1130960C1F018F4883579F0B5C0803719F08837AC
S113097021F0B0C0E92FE061BE2EB4FE0DC0FB2D06
S1130980F460BF2E09C034FE0AC0292F2660B22E9F
S113099006C028E030E005C020E130E002C020E1DC
S11309A032E0F801B7FE07C06081718182819381D2
S11309B00C5F1F4F06C06081718180E090E00E5F84
S11309C01F4FA3010E94C605882E8618FB2DFF77B2
S11309D03F2E36FE0DC0232D2E7FA22E891458F4EF
S11309E034FE0BC032FC09C0832D8E7EA82E05C0B8
S11309F0B82CA32C03C0B82C01C0B92CA4FE0FC082
S1130A00FE01E80DF11D8081803321F49A2D997E39
S1130A10A92E09C0A2FE06C0B394B39404C08A2DC3
S1130A20867809F0B394A3FC11C0A0FE06C0B214EA
S1130A3088F4280C922C9B180EC0B21460F4B601F2
S1130A4080E290E00E948A05B394F7CFB21418F4C0
S1130A502B1802C0982C212CA4FE10C0B60180E3F0
S1130A6090E00E948A05A2FE17C0A1FC03C088E79B
S1130A7090E002C088E590E0B6010CC08A2D86782B
S1130A8059F0A1FE02C08BE201C080E2A7FC8DE216
S1130A90B60190E00E948A05891438F4B60180E317
S1130AA090E00E948A059A94F7CF8A94F301E80DA6
S1130AB0F11D8081B60190E00E948A058110F5CF76
S1130AC0222009F442CEB60180E290E00E948A0519
S1130AD02A94F6CFF6018681978102C08FEF9FEFAB
S1130AE02B96E2E10C944006FC01059061507040A5
S1130AF00110D8F7809590958E0F9F1F0895FC01E3
S1130B006150704001900110D8F7809590958E0F38
S1130B109F1F08950F931F93CF93DF93FB012381AE
S1130B2021FD03C08FEF9FEF2CC022FF16C046812A
S1130B305781248135814217530744F4A081B18140
S1130B409D012F5F3F4F318320838C932681378112
S1130B502F5F3F4F3783268314C08B01EC01FB01C9
S1130B600084F185E02D0995892BE1F6D8011696CC
S1130B708D919C911797019617969C938E93169737
S1130B80CE01DF91CF911F910F910895FA01AA2709
S1130B90283051F1203181F1E8946F936E7F6E5FBC
S1130BA07F4F8F4F9F4FAF4FB1E03ED0B4E03CD06A
S1130BB0670F781F891F9A1FA11D680F791F8A1F4D
S1130BC0911DA11D6A0F711D811D911DA11D20D0B4
S1130BD009F468943F912AE0269F11243019305D6E
S1130BE03193DEF6CF010895462F4770405D41935F
S1130BF0B3E00FD0C9F7F6CF462F4F70405D4A33AC
S1130C0018F0495D31FD4052419302D0A9F7EACF73
S1130C10B4E0A6959795879577956795BA95C9F7A2
S1130C2000976105710508959B01AC010A2E069495
S1130C305795479537952795BA95C9F7620F731F4E
S1130C40841F951FA01D08952F923F924F925F928B
S1130C506F927F928F929F92AF92BF92CF92DF92C8
S1130C60EF92FF920F931F93CF93DF93CDB7DEB72D
S1130C70CA1BDB0B0FB6F894DEBF0FBECDBF0994C1
S1130C802A88398848885F846E847D848C849B8418
S1130C90AA84B984C884DF80EE80FD800C811B8126
S1130CA0AA81B981CE0FD11D0FB6F894DEBF0FBE55
S10D0CB0CDBFED010895F894FFCFC5
S1130CBA0D0A57656C6F636D6520746F2054656DFA
S1130CCA7065726174757265204D656173757265BC
S1130CDA6D656E740D0A000D0A506C6561736520AA
S1130CEA646970207468652073656E736F72206915
S1130CFA6E2069636520616E642070726573732067
S1130D0A746865207075736820627574746F6E0DEB
S1130D1A0A000D0A20565F30203D20256C64000D20
S1130D2A0A506C6561736520646970207468652073
S1130D3A73656E736F7220696E20626F696C696E77
S1130D4A6720776174657220616E642070726573BE
S1130D5A7320746865207075736820627574746F83
S1130D6A6E0D0A000D0A20565F313030203D2025D1
S1130D7A6C64000D0A206131203D20256C64000D4D
S1130D8A0A206130203D20256C64000D0A506C65F0
S1130D9A61736520646970207468652073656E7375
S1130DAA6F7220696E20756E6B6E6F776E20746534
S1130DBA6D70657261747572650D0A000D0A2056AC
S1130DCA5F55203D20256C64000D0A20556E6B6E1C
S1130DDA6F776E2054656D706572617475726520E3
S1130DEA545F55203D202530346C642020646567A7
S1050DFA4300B0
S9030000FC
